{
  "contractName": "Donations",
  "abi": [
    {
      "constant": true,
      "inputs": [],
      "name": "poolAddress",
      "outputs": [
        {
          "name": "",
          "type": "address"
        }
      ],
      "payable": false,
      "stateMutability": "view",
      "type": "function"
    },
    {
      "constant": false,
      "inputs": [],
      "name": "kill",
      "outputs": [],
      "payable": false,
      "stateMutability": "nonpayable",
      "type": "function"
    },
    {
      "constant": false,
      "inputs": [
        {
          "name": "amount",
          "type": "uint256"
        }
      ],
      "name": "sendDonation",
      "outputs": [
        {
          "name": "sufficient",
          "type": "bool"
        }
      ],
      "payable": false,
      "stateMutability": "nonpayable",
      "type": "function"
    },
    {
      "constant": true,
      "inputs": [],
      "name": "sender",
      "outputs": [
        {
          "name": "",
          "type": "address"
        }
      ],
      "payable": false,
      "stateMutability": "view",
      "type": "function"
    },
    {
      "constant": true,
      "inputs": [],
      "name": "owner",
      "outputs": [
        {
          "name": "",
          "type": "address"
        }
      ],
      "payable": false,
      "stateMutability": "view",
      "type": "function"
    },
    {
      "constant": true,
      "inputs": [],
      "name": "getPoolBalanceInEth",
      "outputs": [
        {
          "name": "",
          "type": "uint256"
        }
      ],
      "payable": false,
      "stateMutability": "view",
      "type": "function"
    },
    {
      "constant": true,
      "inputs": [
        {
          "name": "addr",
          "type": "address"
        }
      ],
      "name": "getBalance",
      "outputs": [
        {
          "name": "",
          "type": "uint256"
        }
      ],
      "payable": false,
      "stateMutability": "view",
      "type": "function"
    },
    {
      "inputs": [],
      "payable": false,
      "stateMutability": "nonpayable",
      "type": "constructor"
    },
    {
      "anonymous": false,
      "inputs": [
        {
          "indexed": false,
          "name": "from",
          "type": "address"
        },
        {
          "indexed": false,
          "name": "amount",
          "type": "uint256"
        }
      ],
      "name": "Donate",
      "type": "event"
    }
  ],
  "bytecode": "0x606060405273f17f52151ebef6c7334fad080c5704d77216b7326000806101000a81548173ffffffffffffffffffffffffffffffffffffffff021916908373ffffffffffffffffffffffffffffffffffffffff160217905550341561006357600080fd5b33600160006101000a81548173ffffffffffffffffffffffffffffffffffffffff021916908373ffffffffffffffffffffffffffffffffffffffff160217905550610671806100b36000396000f300606060405260043610610083576000357c0100000000000000000000000000000000000000000000000000000000900463ffffffff1680631755ff211461008857806341c0e1b5146100dd578063665588c9146100f257806367e404ce1461012d5780638da5cb5b14610182578063d9311417146101d7578063f8b2cb4f14610200575b600080fd5b341561009357600080fd5b61009b61024d565b604051808273ffffffffffffffffffffffffffffffffffffffff1673ffffffffffffffffffffffffffffffffffffffff16815260200191505060405180910390f35b34156100e857600080fd5b6100f0610272565b005b34156100fd57600080fd5b6101136004808035906020019091905050610309565b604051808215151515815260200191505060405180910390f35b341561013857600080fd5b6101406104e9565b604051808273ffffffffffffffffffffffffffffffffffffffff1673ffffffffffffffffffffffffffffffffffffffff16815260200191505060405180910390f35b341561018d57600080fd5b61019561050f565b604051808273ffffffffffffffffffffffffffffffffffffffff1673ffffffffffffffffffffffffffffffffffffffff16815260200191505060405180910390f35b34156101e257600080fd5b6101ea610535565b6040518082815260200191505060405180910390f35b341561020b57600080fd5b610237600480803573ffffffffffffffffffffffffffffffffffffffff169060200190919050506105fc565b6040518082815260200191505060405180910390f35b6000809054906101000a900473ffffffffffffffffffffffffffffffffffffffff1681565b600160009054906101000a900473ffffffffffffffffffffffffffffffffffffffff1673ffffffffffffffffffffffffffffffffffffffff163373ffffffffffffffffffffffffffffffffffffffff161415156102ce57600080fd5b600160009054906101000a900473ffffffffffffffffffffffffffffffffffffffff1673ffffffffffffffffffffffffffffffffffffffff16ff5b600081600360003373ffffffffffffffffffffffffffffffffffffffff1673ffffffffffffffffffffffffffffffffffffffff16815260200190815260200160002054101561035b57600090506104e4565b6000809054906101000a900473ffffffffffffffffffffffffffffffffffffffff1673ffffffffffffffffffffffffffffffffffffffff163373ffffffffffffffffffffffffffffffffffffffff1614156103b957600090506104e4565b81600360003373ffffffffffffffffffffffffffffffffffffffff1673ffffffffffffffffffffffffffffffffffffffff1681526020019081526020016000206000828254039250508190555081600360008060009054906101000a900473ffffffffffffffffffffffffffffffffffffffff1673ffffffffffffffffffffffffffffffffffffffff1673ffffffffffffffffffffffffffffffffffffffff168152602001908152602001600020600082825401925050819055507f0553260a2e46b0577270d8992db02d30856ca880144c72d6e9503760946aef133383604051808373ffffffffffffffffffffffffffffffffffffffff1673ffffffffffffffffffffffffffffffffffffffff1681526020018281526020019250505060405180910390a1600190505b919050565b600260009054906101000a900473ffffffffffffffffffffffffffffffffffffffff1681565b600160009054906101000a900473ffffffffffffffffffffffffffffffffffffffff1681565b600073__ConvertLib____________________________6396e4ee3d61057b6000809054906101000a900473ffffffffffffffffffffffffffffffffffffffff166105fc565b60026000604051602001526040518363ffffffff167c0100000000000000000000000000000000000000000000000000000000028152600401808381526020018281526020019250505060206040518083038186803b15156105dc57600080fd5b6102c65a03f415156105ed57600080fd5b50505060405180519050905090565b6000600360008373ffffffffffffffffffffffffffffffffffffffff1673ffffffffffffffffffffffffffffffffffffffff1681526020019081526020016000205490509190505600a165627a7a723058207a3c8c0f2f9482fc463350fedfcac245b8d722168ff7813f8984059b2a99dd640029",
  "source": "pragma solidity ^0.4.18;\r\n\r\nimport \"./ConvertLib.sol\";\r\n\r\ncontract Donations {\r\n    address public poolAddress = 0xf17f52151EbEF6C7334FAD080c5704D77216b732;\r\n    address public owner;\r\n    address public sender;\r\n\r\n    mapping (address => uint) balances;\r\n\r\n    event Donate(address from, uint256 amount);\r\n\r\n    modifier onlyOwner() {\r\n        require(msg.sender == owner);\r\n        _;\r\n    }\r\n\r\n     function kill() public onlyOwner {\r\n        selfdestruct(owner);\r\n    }\r\n\r\n    function Donations() public {\r\n\t\towner = msg.sender;\r\n\t}\r\n\r\n\tfunction sendDonation(uint amount) public returns(bool sufficient) {\r\n\t\tif (balances[msg.sender] < amount) {\r\n            return false;\r\n        }\r\n        if (msg.sender == poolAddress) {\r\n            return false;\r\n        }\r\n\t\tbalances[msg.sender] -= amount;\r\n\t\tbalances[poolAddress] += amount;\r\n\t\tDonate(msg.sender, amount);\r\n\t\treturn true;\r\n\t}\r\n\r\n\tfunction getPoolBalanceInEth() public view returns(uint) {\r\n\t\treturn ConvertLib.convert(getBalance(poolAddress),2);\r\n\t}\r\n\r\n    function getBalance(address addr) public view returns(uint) {\r\n\t\treturn balances[addr];\r\n\t}\r\n\r\n}",
  "sourcePath": "C:\\Users\\dziug\\Downloads\\DONT OPEN\\Ethereum\\donations\\contracts\\Donations.sol",
  "compiler": {
    "name": "solc",
    "version": "0.4.18+commit.9cf6e910.Emscripten.clang"
  },
  "schemaVersion": "1.0.1",
  "updatedAt": "2018-01-07T04:13:39.952Z"
}