{
  "contractName": "Donations",
  "abi": [
    {
      "constant": false,
      "inputs": [],
      "name": "checkGoalReached",
      "outputs": [
        {
          "name": "",
          "type": "bool"
        }
      ],
      "payable": false,
      "stateMutability": "nonpayable",
      "type": "function"
    },
    {
      "constant": true,
      "inputs": [],
      "name": "getBalance",
      "outputs": [
        {
          "name": "",
          "type": "uint256"
        }
      ],
      "payable": false,
      "stateMutability": "view",
      "type": "function"
    },
    {
      "constant": true,
      "inputs": [],
      "name": "deadline",
      "outputs": [
        {
          "name": "",
          "type": "uint256"
        }
      ],
      "payable": false,
      "stateMutability": "view",
      "type": "function"
    },
    {
      "constant": false,
      "inputs": [],
      "name": "kill",
      "outputs": [],
      "payable": false,
      "stateMutability": "nonpayable",
      "type": "function"
    },
    {
      "constant": false,
      "inputs": [
        {
          "name": "_amount",
          "type": "uint256"
        }
      ],
      "name": "sendDonation",
      "outputs": [
        {
          "name": "success",
          "type": "bool"
        }
      ],
      "payable": true,
      "stateMutability": "payable",
      "type": "function"
    },
    {
      "constant": false,
      "inputs": [
        {
          "name": "_amount",
          "type": "uint256"
        }
      ],
      "name": "transferDonation",
      "outputs": [],
      "payable": false,
      "stateMutability": "nonpayable",
      "type": "function"
    },
    {
      "constant": true,
      "inputs": [],
      "name": "fundingGoal",
      "outputs": [
        {
          "name": "",
          "type": "uint256"
        }
      ],
      "payable": false,
      "stateMutability": "view",
      "type": "function"
    },
    {
      "constant": true,
      "inputs": [],
      "name": "owner",
      "outputs": [
        {
          "name": "",
          "type": "address"
        }
      ],
      "payable": false,
      "stateMutability": "view",
      "type": "function"
    },
    {
      "constant": true,
      "inputs": [],
      "name": "donationClosed",
      "outputs": [
        {
          "name": "",
          "type": "bool"
        }
      ],
      "payable": false,
      "stateMutability": "view",
      "type": "function"
    },
    {
      "constant": true,
      "inputs": [],
      "name": "durationInMinutes",
      "outputs": [
        {
          "name": "",
          "type": "uint256"
        }
      ],
      "payable": false,
      "stateMutability": "view",
      "type": "function"
    },
    {
      "constant": true,
      "inputs": [],
      "name": "fundingGoalReached",
      "outputs": [
        {
          "name": "",
          "type": "bool"
        }
      ],
      "payable": false,
      "stateMutability": "view",
      "type": "function"
    },
    {
      "inputs": [],
      "payable": false,
      "stateMutability": "nonpayable",
      "type": "constructor"
    },
    {
      "payable": true,
      "stateMutability": "payable",
      "type": "fallback"
    },
    {
      "anonymous": false,
      "inputs": [
        {
          "indexed": false,
          "name": "donationTo",
          "type": "address"
        },
        {
          "indexed": false,
          "name": "totalAmountRaised",
          "type": "uint256"
        }
      ],
      "name": "SendRaisedDonation",
      "type": "event"
    },
    {
      "anonymous": false,
      "inputs": [
        {
          "indexed": false,
          "name": "sender",
          "type": "address"
        },
        {
          "indexed": false,
          "name": "receiver",
          "type": "address"
        },
        {
          "indexed": false,
          "name": "amountDonated",
          "type": "uint256"
        }
      ],
      "name": "Donate",
      "type": "event"
    }
  ],
  "bytecode": "0x60606040526001805560016002556000600460006101000a81548160ff0219169083151502179055506000600460016101000a81548160ff021916908315150217905550341561004e57600080fd5b336000806101000a81548173ffffffffffffffffffffffffffffffffffffffff021916908373ffffffffffffffffffffffffffffffffffffffff160217905550670de0b6b3a764000060015402600181905550603c600254024201600381905550610747806100be6000396000f3006060604052600436106100af576000357c0100000000000000000000000000000000000000000000000000000000900463ffffffff16806301cb3b20146100b457806312065fe0146100e157806329dcb0cf1461010a57806341c0e1b514610133578063665588c914610148578063798e4a03146101785780637a3a0e841461019b5780638da5cb5b146101c4578063ac4df04114610219578063ceb8ee8b14610246578063d424f6281461026f575b600080fd5b34156100bf57600080fd5b6100c761029c565b604051808215151515815260200191505060405180910390f35b34156100ec57600080fd5b6100f46103a7565b6040518082815260200191505060405180910390f35b341561011557600080fd5b61011d6103e7565b6040518082815260200191505060405180910390f35b341561013e57600080fd5b6101466103ed565b005b61015e600480803590602001909190505061047e565b604051808215151515815260200191505060405180910390f35b341561018357600080fd5b6101996004808035906020019091905050610660565b005b34156101a657600080fd5b6101ae6106c4565b6040518082815260200191505060405180910390f35b34156101cf57600080fd5b6101d76106ca565b604051808273ffffffffffffffffffffffffffffffffffffffff1673ffffffffffffffffffffffffffffffffffffffff16815260200191505060405180910390f35b341561022457600080fd5b61022c6106ef565b604051808215151515815260200191505060405180910390f35b341561025157600080fd5b610259610702565b6040518082815260200191505060405180910390f35b341561027a57600080fd5b610282610708565b604051808215151515815260200191505060405180910390f35b60006001546102a96103a7565b1015806102b857506003544210155b1561039f576001600460016101000a81548160ff0219169083151502179055506001600460006101000a81548160ff0219169083151502179055506103036102fe6103a7565b610660565b7f80acf9e81c7d114bb599726c01ec481c7be391a984b21d1f3bb190d5a8573d016000809054906101000a900473ffffffffffffffffffffffffffffffffffffffff1661034e6103a7565b604051808373ffffffffffffffffffffffffffffffffffffffff1673ffffffffffffffffffffffffffffffffffffffff1681526020018281526020019250505060405180910390a1600190506103a4565b600090505b90565b60008060009054906101000a900473ffffffffffffffffffffffffffffffffffffffff1673ffffffffffffffffffffffffffffffffffffffff1631905090565b60035481565b6000809054906101000a900473ffffffffffffffffffffffffffffffffffffffff1673ffffffffffffffffffffffffffffffffffffffff163373ffffffffffffffffffffffffffffffffffffffff16141561047c576000809054906101000a900473ffffffffffffffffffffffffffffffffffffffff1673ffffffffffffffffffffffffffffffffffffffff16ff5b565b6000600460009054906101000a900460ff1615151561049c57600080fd5b81600560003373ffffffffffffffffffffffffffffffffffffffff1673ffffffffffffffffffffffffffffffffffffffff168152602001908152602001600020541015156104e957600080fd5b81600560003373ffffffffffffffffffffffffffffffffffffffff1673ffffffffffffffffffffffffffffffffffffffff168152602001908152602001600020600082825403925050819055506000809054906101000a900473ffffffffffffffffffffffffffffffffffffffff1673ffffffffffffffffffffffffffffffffffffffff166108fc839081150290604051600060405180830381858888f19350505050151561059757600080fd5b7f88dcaca629d63d86330e97adc358b13dd0ebd703239aea96b7ea2fb331b16f4e336000809054906101000a900473ffffffffffffffffffffffffffffffffffffffff1684604051808473ffffffffffffffffffffffffffffffffffffffff1673ffffffffffffffffffffffffffffffffffffffff1681526020018373ffffffffffffffffffffffffffffffffffffffff1673ffffffffffffffffffffffffffffffffffffffff168152602001828152602001935050505060405180910390a160019050919050565b6000809054906101000a900473ffffffffffffffffffffffffffffffffffffffff1673ffffffffffffffffffffffffffffffffffffffff166108fc829081150290604051600060405180830381858888f1935050505015156106c157600080fd5b50565b60015481565b6000809054906101000a900473ffffffffffffffffffffffffffffffffffffffff1681565b600460009054906101000a900460ff1681565b60025481565b600460019054906101000a900460ff16815600a165627a7a723058202ab4370cfc6a680c52687e1312e6d250fef9f378aa20b6d31bd45bc9b4e9208f0029",
  "source": "pragma solidity ^0.4.18;\r\n\r\ncontract Donations {\r\n\r\n    address public owner; // Contract creator's address\r\n    uint public fundingGoal = 1; // Funding goal value\r\n    uint public durationInMinutes = 1; // Duration for each donation\r\n    uint public deadline; // Donation stops at deadline\r\n    bool public donationClosed = false;\r\n    bool public fundingGoalReached = false;\r\n    \r\n    mapping (address => uint) balanceOf;\r\n\r\n    event SendRaisedDonation(address donationTo, uint totalAmountRaised);\r\n    event Donate(address sender, address receiver, uint256 amountDonated);\r\n    \r\n    /*\r\n    *   Give access to functions after deadline\r\n    */\r\n    modifier afterDeadLine {\r\n        if (now >= deadline) {\r\n            _;\r\n        }\r\n    }\r\n    \r\n    /*\r\n    *   Default constructor\r\n    */\r\n    function Donations() public {\r\n\t\towner = msg.sender;\r\n\t\tfundingGoal = fundingGoal * 1 ether;\r\n\t\tdeadline = now + (durationInMinutes * 1 minutes);\r\n\t}\r\n    \r\n    /*\r\n    *   Donate to organization\r\n    */\r\n\tfunction sendDonation(uint _amount) public payable returns(bool success) {\r\n\t    require(!donationClosed);\r\n\t\trequire(balanceOf[msg.sender] < _amount);\r\n\t\tbalanceOf[msg.sender] -= _amount;\r\n        owner.transfer(_amount);\r\n\t\tDonate(msg.sender, owner, _amount);\r\n\t\treturn true;\r\n\t}\r\n\t\r\n\t/*\r\n\t*   Check if goal is reached. Can only check after deadline = true\r\n\t*/\r\n\tfunction checkGoalReached() public returns(bool) {\r\n\t    if (getBalance() >= fundingGoal || now >= deadline) {\r\n\t        fundingGoalReached = true;\r\n\t        donationClosed = true;\r\n\t        transferDonation(getBalance());\r\n\t        SendRaisedDonation(owner, getBalance());\r\n\t        return true;\r\n\t    }\r\n\t    return false;\r\n\t}\r\n\t\r\n\tfunction transferDonation(uint _amount) public {\r\n\t    owner.transfer(_amount);\r\n\t}\r\n    \r\n    /*\r\n    *   Check contract's balance\r\n    */\r\n    function getBalance() public view returns(uint) {\r\n\t\treturn owner.balance;\r\n\t}\r\n\r\n    /* for now, have ticket purchasing only through functions\r\n    * for sanity purposes\r\n    */ \r\n    function() payable public {\r\n      revert();\r\n    }\r\n\r\n    /*\r\n    *   Delete this smart contract from blockchain\r\n    */\r\n    function kill() public {\r\n        if (msg.sender == owner) {\r\n\r\n            selfdestruct(owner);\r\n        }\r\n    }\r\n}",
  "sourcePath": "C:\\Users\\dziug\\Downloads\\DONT OPEN\\Ethereum\\donations\\contracts\\Donations.sol",
  "compiler": {
    "name": "solc",
    "version": "0.4.18+commit.9cf6e910.Emscripten.clang"
  },
  "schemaVersion": "1.0.1",
  "updatedAt": "2018-01-15T03:16:05.660Z"
}